:020000040000FA
:020000003228A4
:040002000034003492
:080008006400A8008312031339
:100010000B190F288C182728101820282C288B1E25
:100020002C2801308A0021084221870010308600E8
:1000300083212008422187002030860083212C283C
:10004000AF0B2C280F30AF000230AD062C28AE0BC2
:100050002C282E30AE002D102808831203130B110C
:100060008C100900831203171E14031383163030FB
:100070009F0005148510C03086008701810101159D
:100080008B178B160B178312900181309F00A001F4
:10009000A1010F30AF002E30AE004E2888218821FC
:1000A0003621B0004D2103138312A000A1000F30B0
:1000B000A005A10EA1058821882100306B20AB008E
:1000C00001306B20AC00300807213008061F932058
:1000D000861FCD204E28831203178D008316031729
:1000E0008C130C14831203170C08031308008312DB
:1000F00003178D008F20831203178C0083160317BC
:100100008C130C158B138B1B822855308D00AA3055
:100110008D008C148B170C118312031308008312AB
:1001200003132A0808002D140630A9008821A90B02
:100130009628061B0800262100306B20AB004D21BD
:1001400003138312A000A1000F30A005A10EA1058A
:100150008B1286010330A9008821A90BAC288B16CD
:10016000061BB928AB032B08AA00003077202E30DD
:10017000AE00861BC228AB0A2B08AA0000307720ED
:100180002E30AE002D1CCA280330A9008821A90BEF
:10019000C6289C2812118B1608002D140630A900C1
:1001A0008821A90BD028861B0800262101306B204E
:1001B000AC004D2103138312A000A1000F30A00555
:1001C000A10EA1058B1286010330A9008821A90B7D
:1001D000E6288B16061BF328AC032C08AA00013076
:1001E00077202E30AE00861BFC28AC0A2C08AA0013
:1001F000013077202E30AE002D1C04290330A900D9
:100200008821A90B0029D62812118B1608002C0270
:10021000031C0F2930082B02831C232919291014D1
:100220000C180420AD1C15291729851007298514E1
:10023000072910140C180420AD1C1F292129851032
:10024000072985140729851010100800831203134D
:100250009201920991018C100B178B178316920152
:1002600092098C1483122E30AE00080003138312FF
:100270008B1691219F149F183B29031083161E0C87
:10028000831208008207403479342434303419341E
:1002900012340234783400341034A200A301A401D3
:1002A0000830A6000330A7006E210310A501A20D9F
:1002B0000318A50A0310A50D0310A30D231AA50A00
:1002C0000310A40DA518A30A2518A40AA60B5429E7
:1002D0000F30A305A405240E2307080023080F39B7
:1002E000053C03197629031C762978292708A307DA
:1002F00024080F39053C03198029031C8029822911
:100300002708A4070800FA30FF3E031D84290800CF
:10031000FF30A600FA30FF3E031D8B29A60B8A2969
:1003200008000000000000000000000000000800BD
:02400E00C433B9
:04420000140019008D
:00000001FF
